{"abi":[{"type":"constructor","inputs":[{"name":"_usdc","type":"address","internalType":"address"}],"stateMutability":"nonpayable"},{"type":"function","name":"artistWallet","inputs":[{"name":"","type":"bytes32","internalType":"bytes32"}],"outputs":[{"name":"","type":"address","internalType":"address"}],"stateMutability":"view"},{"type":"function","name":"claimArtist","inputs":[{"name":"mbidHash","type":"bytes32","internalType":"bytes32"}],"outputs":[],"stateMutability":"nonpayable"},{"type":"function","name":"defaultTipAmount","inputs":[],"outputs":[{"name":"","type":"uint256","internalType":"uint256"}],"stateMutability":"view"},{"type":"function","name":"deposit","inputs":[{"name":"amount","type":"uint256","internalType":"uint256"}],"outputs":[],"stateMutability":"nonpayable"},{"type":"function","name":"getArtistInfo","inputs":[{"name":"mbidHash","type":"bytes32","internalType":"bytes32"}],"outputs":[{"name":"wallet","type":"address","internalType":"address"},{"name":"verified","type":"bool","internalType":"bool"},{"name":"unclaimed","type":"uint256","internalType":"uint256"}],"stateMutability":"view"},{"type":"function","name":"isVerified","inputs":[{"name":"","type":"bytes32","internalType":"bytes32"}],"outputs":[{"name":"","type":"bool","internalType":"bool"}],"stateMutability":"view"},{"type":"function","name":"listenerBalance","inputs":[{"name":"","type":"address","internalType":"address"}],"outputs":[{"name":"","type":"uint256","internalType":"uint256"}],"stateMutability":"view"},{"type":"function","name":"owner","inputs":[],"outputs":[{"name":"","type":"address","internalType":"address"}],"stateMutability":"view"},{"type":"function","name":"renounceOwnership","inputs":[],"outputs":[],"stateMutability":"nonpayable"},{"type":"function","name":"setDefaultTipAmount","inputs":[{"name":"amount","type":"uint256","internalType":"uint256"}],"outputs":[],"stateMutability":"nonpayable"},{"type":"function","name":"tip","inputs":[{"name":"mbidHash","type":"bytes32","internalType":"bytes32"},{"name":"amount","type":"uint256","internalType":"uint256"}],"outputs":[],"stateMutability":"nonpayable"},{"type":"function","name":"tipDefault","inputs":[{"name":"mbidHash","type":"bytes32","internalType":"bytes32"}],"outputs":[],"stateMutability":"nonpayable"},{"type":"function","name":"totalTipped","inputs":[{"name":"","type":"address","internalType":"address"}],"outputs":[{"name":"","type":"uint256","internalType":"uint256"}],"stateMutability":"view"},{"type":"function","name":"transferOwnership","inputs":[{"name":"newOwner","type":"address","internalType":"address"}],"outputs":[],"stateMutability":"nonpayable"},{"type":"function","name":"unclaimedBalance","inputs":[{"name":"","type":"bytes32","internalType":"bytes32"}],"outputs":[{"name":"","type":"uint256","internalType":"uint256"}],"stateMutability":"view"},{"type":"function","name":"usdc","inputs":[],"outputs":[{"name":"","type":"address","internalType":"contract IERC20"}],"stateMutability":"view"},{"type":"function","name":"verifyAndRelease","inputs":[{"name":"mbidHash","type":"bytes32","internalType":"bytes32"}],"outputs":[],"stateMutability":"nonpayable"},{"type":"function","name":"withdraw","inputs":[{"name":"amount","type":"uint256","internalType":"uint256"}],"outputs":[],"stateMutability":"nonpayable"},{"type":"event","name":"ArtistClaimed","inputs":[{"name":"mbidHash","type":"bytes32","indexed":true,"internalType":"bytes32"},{"name":"wallet","type":"address","indexed":true,"internalType":"address"}],"anonymous":false},{"type":"event","name":"ArtistVerified","inputs":[{"name":"mbidHash","type":"bytes32","indexed":true,"internalType":"bytes32"},{"name":"wallet","type":"address","indexed":true,"internalType":"address"}],"anonymous":false},{"type":"event","name":"Deposited","inputs":[{"name":"listener","type":"address","indexed":true,"internalType":"address"},{"name":"amount","type":"uint256","indexed":false,"internalType":"uint256"}],"anonymous":false},{"type":"event","name":"OwnershipTransferred","inputs":[{"name":"previousOwner","type":"address","indexed":true,"internalType":"address"},{"name":"newOwner","type":"address","indexed":true,"internalType":"address"}],"anonymous":false},{"type":"event","name":"Tipped","inputs":[{"name":"listener","type":"address","indexed":true,"internalType":"address"},{"name":"mbidHash","type":"bytes32","indexed":true,"internalType":"bytes32"},{"name":"amount","type":"uint256","indexed":false,"internalType":"uint256"}],"anonymous":false},{"type":"event","name":"Withdrawn","inputs":[{"name":"listener","type":"address","indexed":true,"internalType":"address"},{"name":"amount","type":"uint256","indexed":false,"internalType":"uint256"}],"anonymous":false},{"type":"error","name":"OwnableInvalidOwner","inputs":[{"name":"owner","type":"address","internalType":"address"}]},{"type":"error","name":"OwnableUnauthorizedAccount","inputs":[{"name":"account","type":"address","internalType":"address"}]}],"bytecode":{"object":"0x608060405261271060075534801562000016575f80fd5b5060405162001ba538038062001ba583398181016040528101906200003c91906200022f565b335f73ffffffffffffffffffffffffffffffffffffffff168173ffffffffffffffffffffffffffffffffffffffff1603620000b0575f6040517f1e4fbdf7000000000000000000000000000000000000000000000000000000008152600401620000a7919062000270565b60405180910390fd5b620000c1816200010960201b60201c565b508060015f6101000a81548173ffffffffffffffffffffffffffffffffffffffff021916908373ffffffffffffffffffffffffffffffffffffffff160217905550506200028b565b5f805f9054906101000a900473ffffffffffffffffffffffffffffffffffffffff169050815f806101000a81548173ffffffffffffffffffffffffffffffffffffffff021916908373ffffffffffffffffffffffffffffffffffffffff1602179055508173ffffffffffffffffffffffffffffffffffffffff168173ffffffffffffffffffffffffffffffffffffffff167f8be0079c531659141344cd1fd0a4f28419497f9722a3daafe3b4186f6b6457e060405160405180910390a35050565b5f80fd5b5f73ffffffffffffffffffffffffffffffffffffffff82169050919050565b5f620001f982620001ce565b9050919050565b6200020b81620001ed565b811462000216575f80fd5b50565b5f81519050620002298162000200565b92915050565b5f60208284031215620002475762000246620001ca565b5b5f620002568482850162000219565b91505092915050565b6200026a81620001ed565b82525050565b5f602082019050620002855f8301846200025f565b92915050565b61190c80620002995f395ff3fe608060405234801561000f575f80fd5b5060043610610114575f3560e01c8063715018a6116100a0578063c181b2731161006f578063c181b273146102a0578063e9173c51146102d0578063eed9e07714610300578063f285404814610330578063f2fde38b1461036257610114565b8063715018a61461022c5780638da5cb5b14610236578063b4aa967d14610254578063b6b55f251461028457610114565b80633e413bee116100e75780633e413bee1461018a57806343b37ddf146101a85780634bac9c3c146101c45780634dd8f0c2146101e05780636d7ffbbf146101fc57610114565b806303361afb146101185780631fae3d15146101345780632e1a7d4d146101505780633388bf341461016c575b5f80fd5b610132600480360381019061012d919061136a565b61037e565b005b61014e6004803603810190610149919061136a565b6104b2565b005b61016a600480360381019061016591906113c8565b6106fa565b005b6101746108bb565b6040516101819190611402565b60405180910390f35b6101926108c1565b60405161019f9190611495565b60405180910390f35b6101c260048036038101906101bd91906114ae565b6108e6565b005b6101de60048036038101906101d9919061136a565b610bb9565b005b6101fa60048036038101906101f591906113c8565b610e92565b005b6102166004803603810190610211919061136a565b610ea4565b604051610223919061150c565b60405180910390f35b610234610ed4565b005b61023e610ee7565b60405161024b919061150c565b60405180910390f35b61026e6004803603810190610269919061136a565b610f0e565b60405161027b9190611402565b60405180910390f35b61029e600480360381019061029991906113c8565b610f23565b005b6102ba60048036038101906102b5919061136a565b6110a8565b6040516102c7919061153f565b60405180910390f35b6102ea60048036038101906102e59190611582565b6110c5565b6040516102f79190611402565b60405180910390f35b61031a60048036038101906103159190611582565b6110da565b6040516103279190611402565b60405180910390f35b61034a6004803603810190610345919061136a565b6110ef565b604051610359939291906115ad565b60405180910390f35b61037c60048036038101906103779190611582565b611160565b005b5f73ffffffffffffffffffffffffffffffffffffffff1660045f8381526020019081526020015f205f9054906101000a900473ffffffffffffffffffffffffffffffffffffffff1673ffffffffffffffffffffffffffffffffffffffff161461041c576040517f08c379a00000000000000000000000000000000000000000000000000000000081526004016104139061163c565b60405180910390fd5b3360045f8381526020019081526020015f205f6101000a81548173ffffffffffffffffffffffffffffffffffffffff021916908373ffffffffffffffffffffffffffffffffffffffff1602179055503373ffffffffffffffffffffffffffffffffffffffff16817f0d6045bf0ad6d8c3c8c2cd3e63ec0b41910d1c815649c4781f2e73e4520d001060405160405180910390a350565b6104ba6111e4565b5f73ffffffffffffffffffffffffffffffffffffffff1660045f8381526020019081526020015f205f9054906101000a900473ffffffffffffffffffffffffffffffffffffffff1673ffffffffffffffffffffffffffffffffffffffff1603610558576040517f08c379a000000000000000000000000000000000000000000000000000000000815260040161054f906116a4565b60405180910390fd5b600160055f8381526020019081526020015f205f6101000a81548160ff0219169083151502179055505f60035f8381526020019081526020015f205490505f811115610682575f60035f8481526020019081526020015f208190555060015f9054906101000a900473ffffffffffffffffffffffffffffffffffffffff1673ffffffffffffffffffffffffffffffffffffffff1663a9059cbb60045f8581526020019081526020015f205f9054906101000a900473ffffffffffffffffffffffffffffffffffffffff16836040518363ffffffff1660e01b81526004016106409291906116c2565b6020604051808303815f875af115801561065c573d5f803e3d5ffd5b505050506040513d601f19601f820116820180604052508101906106809190611713565b505b60045f8381526020019081526020015f205f9054906101000a900473ffffffffffffffffffffffffffffffffffffffff1673ffffffffffffffffffffffffffffffffffffffff16827fc916fa0a4b9801409e0679f897b6554ec6480558d9f5274f62dd7231e70be93a60405160405180910390a35050565b8060025f3373ffffffffffffffffffffffffffffffffffffffff1673ffffffffffffffffffffffffffffffffffffffff1681526020019081526020015f2054101561077a576040517f08c379a000000000000000000000000000000000000000000000000000000000815260040161077190611788565b60405180910390fd5b8060025f3373ffffffffffffffffffffffffffffffffffffffff1673ffffffffffffffffffffffffffffffffffffffff1681526020019081526020015f205f8282546107c691906117d3565b9250508190555060015f9054906101000a900473ffffffffffffffffffffffffffffffffffffffff1673ffffffffffffffffffffffffffffffffffffffff1663a9059cbb33836040518363ffffffff1660e01b81526004016108299291906116c2565b6020604051808303815f875af1158015610845573d5f803e3d5ffd5b505050506040513d601f19601f820116820180604052508101906108699190611713565b503373ffffffffffffffffffffffffffffffffffffffff167f7084f5476618d8e60b11ef0d7d3f06914655adb8793e28ff7f018d4c76d505d5826040516108b09190611402565b60405180910390a250565b60075481565b60015f9054906101000a900473ffffffffffffffffffffffffffffffffffffffff1681565b8060025f3373ffffffffffffffffffffffffffffffffffffffff1673ffffffffffffffffffffffffffffffffffffffff1681526020019081526020015f20541015610966576040517f08c379a000000000000000000000000000000000000000000000000000000000815260040161095d90611788565b60405180910390fd5b8060025f3373ffffffffffffffffffffffffffffffffffffffff1673ffffffffffffffffffffffffffffffffffffffff1681526020019081526020015f205f8282546109b291906117d3565b925050819055508060065f3373ffffffffffffffffffffffffffffffffffffffff1673ffffffffffffffffffffffffffffffffffffffff1681526020019081526020015f205f828254610a059190611806565b925050819055505f60045f8481526020019081526020015f205f9054906101000a900473ffffffffffffffffffffffffffffffffffffffff1690505f73ffffffffffffffffffffffffffffffffffffffff168173ffffffffffffffffffffffffffffffffffffffff1614158015610a96575060055f8481526020019081526020015f205f9054906101000a900460ff165b15610b3d5760015f9054906101000a900473ffffffffffffffffffffffffffffffffffffffff1673ffffffffffffffffffffffffffffffffffffffff1663a9059cbb82846040518363ffffffff1660e01b8152600401610af79291906116c2565b6020604051808303815f875af1158015610b13573d5f803e3d5ffd5b505050506040513d601f19601f82011682018060405250810190610b379190611713565b50610b65565b8160035f8581526020019081526020015f205f828254610b5d9190611806565b925050819055505b823373ffffffffffffffffffffffffffffffffffffffff167f5771061a88077c84baf8c31e3d2965bd05ff50717239186e470e4409215311c284604051610bac9190611402565b60405180910390a3505050565b5f60075490508060025f3373ffffffffffffffffffffffffffffffffffffffff1673ffffffffffffffffffffffffffffffffffffffff1681526020019081526020015f20541015610c3f576040517f08c379a0000000000000000000000000000000000000000000000000000000008152600401610c3690611788565b60405180910390fd5b8060025f3373ffffffffffffffffffffffffffffffffffffffff1673ffffffffffffffffffffffffffffffffffffffff1681526020019081526020015f205f828254610c8b91906117d3565b925050819055508060065f3373ffffffffffffffffffffffffffffffffffffffff1673ffffffffffffffffffffffffffffffffffffffff1681526020019081526020015f205f828254610cde9190611806565b925050819055505f60045f8481526020019081526020015f205f9054906101000a900473ffffffffffffffffffffffffffffffffffffffff1690505f73ffffffffffffffffffffffffffffffffffffffff168173ffffffffffffffffffffffffffffffffffffffff1614158015610d6f575060055f8481526020019081526020015f205f9054906101000a900460ff165b15610e165760015f9054906101000a900473ffffffffffffffffffffffffffffffffffffffff1673ffffffffffffffffffffffffffffffffffffffff1663a9059cbb82846040518363ffffffff1660e01b8152600401610dd09291906116c2565b6020604051808303815f875af1158015610dec573d5f803e3d5ffd5b505050506040513d601f19601f82011682018060405250810190610e109190611713565b50610e3e565b8160035f8581526020019081526020015f205f828254610e369190611806565b925050819055505b823373ffffffffffffffffffffffffffffffffffffffff167f5771061a88077c84baf8c31e3d2965bd05ff50717239186e470e4409215311c284604051610e859190611402565b60405180910390a3505050565b610e9a6111e4565b8060078190555050565b6004602052805f5260405f205f915054906101000a900473ffffffffffffffffffffffffffffffffffffffff1681565b610edc6111e4565b610ee55f61126b565b565b5f805f9054906101000a900473ffffffffffffffffffffffffffffffffffffffff16905090565b6003602052805f5260405f205f915090505481565b5f8111610f65576040517f08c379a0000000000000000000000000000000000000000000000000000000008152600401610f5c90611883565b60405180910390fd5b60015f9054906101000a900473ffffffffffffffffffffffffffffffffffffffff1673ffffffffffffffffffffffffffffffffffffffff166323b872dd3330846040518463ffffffff1660e01b8152600401610fc3939291906118a1565b6020604051808303815f875af1158015610fdf573d5f803e3d5ffd5b505050506040513d601f19601f820116820180604052508101906110039190611713565b508060025f3373ffffffffffffffffffffffffffffffffffffffff1673ffffffffffffffffffffffffffffffffffffffff1681526020019081526020015f205f8282546110509190611806565b925050819055503373ffffffffffffffffffffffffffffffffffffffff167f2da466a7b24304f47e87fa2e1e5a81b9831ce54fec19055ce277ca2f39ba42c48260405161109d9190611402565b60405180910390a250565b6005602052805f5260405f205f915054906101000a900460ff1681565b6006602052805f5260405f205f915090505481565b6002602052805f5260405f205f915090505481565b5f805f60045f8581526020019081526020015f205f9054906101000a900473ffffffffffffffffffffffffffffffffffffffff1660055f8681526020019081526020015f205f9054906101000a900460ff1660035f8781526020019081526020015f20549250925092509193909250565b6111686111e4565b5f73ffffffffffffffffffffffffffffffffffffffff168173ffffffffffffffffffffffffffffffffffffffff16036111d8575f6040517f1e4fbdf70000000000000000000000000000000000000000000000000000000081526004016111cf919061150c565b60405180910390fd5b6111e18161126b565b50565b6111ec61132c565b73ffffffffffffffffffffffffffffffffffffffff1661120a610ee7565b73ffffffffffffffffffffffffffffffffffffffff16146112695761122d61132c565b6040517f118cdaa7000000000000000000000000000000000000000000000000000000008152600401611260919061150c565b60405180910390fd5b565b5f805f9054906101000a900473ffffffffffffffffffffffffffffffffffffffff169050815f806101000a81548173ffffffffffffffffffffffffffffffffffffffff021916908373ffffffffffffffffffffffffffffffffffffffff1602179055508173ffffffffffffffffffffffffffffffffffffffff168173ffffffffffffffffffffffffffffffffffffffff167f8be0079c531659141344cd1fd0a4f28419497f9722a3daafe3b4186f6b6457e060405160405180910390a35050565b5f33905090565b5f80fd5b5f819050919050565b61134981611337565b8114611353575f80fd5b50565b5f8135905061136481611340565b92915050565b5f6020828403121561137f5761137e611333565b5b5f61138c84828501611356565b91505092915050565b5f819050919050565b6113a781611395565b81146113b1575f80fd5b50565b5f813590506113c28161139e565b92915050565b5f602082840312156113dd576113dc611333565b5b5f6113ea848285016113b4565b91505092915050565b6113fc81611395565b82525050565b5f6020820190506114155f8301846113f3565b92915050565b5f73ffffffffffffffffffffffffffffffffffffffff82169050919050565b5f819050919050565b5f61145d6114586114538461141b565b61143a565b61141b565b9050919050565b5f61146e82611443565b9050919050565b5f61147f82611464565b9050919050565b61148f81611475565b82525050565b5f6020820190506114a85f830184611486565b92915050565b5f80604083850312156114c4576114c3611333565b5b5f6114d185828601611356565b92505060206114e2858286016113b4565b9150509250929050565b5f6114f68261141b565b9050919050565b611506816114ec565b82525050565b5f60208201905061151f5f8301846114fd565b92915050565b5f8115159050919050565b61153981611525565b82525050565b5f6020820190506115525f830184611530565b92915050565b611561816114ec565b811461156b575f80fd5b50565b5f8135905061157c81611558565b92915050565b5f6020828403121561159757611596611333565b5b5f6115a48482850161156e565b91505092915050565b5f6060820190506115c05f8301866114fd565b6115cd6020830185611530565b6115da60408301846113f3565b949350505050565b5f82825260208201905092915050565b7f416c726561647920636c61696d656400000000000000000000000000000000005f82015250565b5f611626600f836115e2565b9150611631826115f2565b602082019050919050565b5f6020820190508181035f8301526116538161161a565b9050919050565b7f4e6f7420636c61696d65640000000000000000000000000000000000000000005f82015250565b5f61168e600b836115e2565b91506116998261165a565b602082019050919050565b5f6020820190508181035f8301526116bb81611682565b9050919050565b5f6040820190506116d55f8301856114fd565b6116e260208301846113f3565b9392505050565b6116f281611525565b81146116fc575f80fd5b50565b5f8151905061170d816116e9565b92915050565b5f6020828403121561172857611727611333565b5b5f611735848285016116ff565b91505092915050565b7f496e73756666696369656e742062616c616e63650000000000000000000000005f82015250565b5f6117726014836115e2565b915061177d8261173e565b602082019050919050565b5f6020820190508181035f83015261179f81611766565b9050919050565b7f4e487b71000000000000000000000000000000000000000000000000000000005f52601160045260245ffd5b5f6117dd82611395565b91506117e883611395565b9250828203905081811115611800576117ff6117a6565b5b92915050565b5f61181082611395565b915061181b83611395565b9250828201905080821115611833576118326117a6565b5b92915050565b7f416d6f756e74206d757374206265203e203000000000000000000000000000005f82015250565b5f61186d6012836115e2565b915061187882611839565b602082019050919050565b5f6020820190508181035f83015261189a81611861565b9050919050565b5f6060820190506118b45f8301866114fd565b6118c160208301856114fd565b6118ce60408301846113f3565b94935050505056fea2646970667358221220ceda8166a6d87ae95367705b68e72362d5e332e335ea5df415c3a6b6089d08fb64736f6c63430008140033","linkReferences":{}},"methodIdentifiers":{"artistWallet(bytes32)":"6d7ffbbf","claimArtist(bytes32)":"03361afb","defaultTipAmount()":"3388bf34","deposit(uint256)":"b6b55f25","getArtistInfo(bytes32)":"f2854048","isVerified(bytes32)":"c181b273","listenerBalance(address)":"eed9e077","owner()":"8da5cb5b","renounceOwnership()":"715018a6","setDefaultTipAmount(uint256)":"4dd8f0c2","tip(bytes32,uint256)":"43b37ddf","tipDefault(bytes32)":"4bac9c3c","totalTipped(address)":"e9173c51","transferOwnership(address)":"f2fde38b","unclaimedBalance(bytes32)":"b4aa967d","usdc()":"3e413bee","verifyAndRelease(bytes32)":"1fae3d15","withdraw(uint256)":"2e1a7d4d"},"id":26}