{"abi":[{"type":"constructor","inputs":[],"stateMutability":"nonpayable"},{"type":"function","name":"artistAddress","inputs":[{"name":"","type":"bytes32","internalType":"bytes32"}],"outputs":[{"name":"","type":"address","internalType":"address"}],"stateMutability":"view"},{"type":"function","name":"artistSubname","inputs":[{"name":"","type":"bytes32","internalType":"bytes32"}],"outputs":[{"name":"","type":"string","internalType":"string"}],"stateMutability":"view"},{"type":"function","name":"getTextRecord","inputs":[{"name":"mbidHash","type":"bytes32","internalType":"bytes32"},{"name":"key","type":"string","internalType":"string"}],"outputs":[{"name":"","type":"string","internalType":"string"}],"stateMutability":"view"},{"type":"function","name":"owner","inputs":[],"outputs":[{"name":"","type":"address","internalType":"address"}],"stateMutability":"view"},{"type":"function","name":"registerArtist","inputs":[{"name":"mbidHash","type":"bytes32","internalType":"bytes32"},{"name":"subname","type":"string","internalType":"string"},{"name":"wallet","type":"address","internalType":"address"}],"outputs":[],"stateMutability":"nonpayable"},{"type":"function","name":"renounceOwnership","inputs":[],"outputs":[],"stateMutability":"nonpayable"},{"type":"function","name":"resolveArtist","inputs":[{"name":"mbidHash","type":"bytes32","internalType":"bytes32"}],"outputs":[{"name":"","type":"address","internalType":"address"}],"stateMutability":"view"},{"type":"function","name":"resolveSubname","inputs":[{"name":"subname","type":"string","internalType":"string"}],"outputs":[{"name":"","type":"address","internalType":"address"}],"stateMutability":"view"},{"type":"function","name":"setTextRecord","inputs":[{"name":"mbidHash","type":"bytes32","internalType":"bytes32"},{"name":"key","type":"string","internalType":"string"},{"name":"value","type":"string","internalType":"string"}],"outputs":[],"stateMutability":"nonpayable"},{"type":"function","name":"subnameMbid","inputs":[{"name":"","type":"string","internalType":"string"}],"outputs":[{"name":"","type":"bytes32","internalType":"bytes32"}],"stateMutability":"view"},{"type":"function","name":"textRecords","inputs":[{"name":"","type":"bytes32","internalType":"bytes32"},{"name":"","type":"string","internalType":"string"}],"outputs":[{"name":"","type":"string","internalType":"string"}],"stateMutability":"view"},{"type":"function","name":"transferOwnership","inputs":[{"name":"newOwner","type":"address","internalType":"address"}],"outputs":[],"stateMutability":"nonpayable"},{"type":"event","name":"ArtistRegistered","inputs":[{"name":"mbidHash","type":"bytes32","indexed":true,"internalType":"bytes32"},{"name":"subname","type":"string","indexed":false,"internalType":"string"},{"name":"wallet","type":"address","indexed":true,"internalType":"address"}],"anonymous":false},{"type":"event","name":"OwnershipTransferred","inputs":[{"name":"previousOwner","type":"address","indexed":true,"internalType":"address"},{"name":"newOwner","type":"address","indexed":true,"internalType":"address"}],"anonymous":false},{"type":"event","name":"TextRecordSet","inputs":[{"name":"mbidHash","type":"bytes32","indexed":true,"internalType":"bytes32"},{"name":"key","type":"string","indexed":false,"internalType":"string"},{"name":"value","type":"string","indexed":false,"internalType":"string"}],"anonymous":false},{"type":"error","name":"OwnableInvalidOwner","inputs":[{"name":"owner","type":"address","internalType":"address"}]},{"type":"error","name":"OwnableUnauthorizedAccount","inputs":[{"name":"account","type":"address","internalType":"address"}]}],"bytecode":{"object":"0x608060405234801562000010575f80fd5b50335f73ffffffffffffffffffffffffffffffffffffffff168173ffffffffffffffffffffffffffffffffffffffff160362000085575f6040517f1e4fbdf70000000000000000000000000000000000000000000000000000000081526004016200007c9190620001a1565b60405180910390fd5b62000096816200009d60201b60201c565b50620001bc565b5f805f9054906101000a900473ffffffffffffffffffffffffffffffffffffffff169050815f806101000a81548173ffffffffffffffffffffffffffffffffffffffff021916908373ffffffffffffffffffffffffffffffffffffffff1602179055508173ffffffffffffffffffffffffffffffffffffffff168173ffffffffffffffffffffffffffffffffffffffff167f8be0079c531659141344cd1fd0a4f28419497f9722a3daafe3b4186f6b6457e060405160405180910390a35050565b5f73ffffffffffffffffffffffffffffffffffffffff82169050919050565b5f62000189826200015e565b9050919050565b6200019b816200017d565b82525050565b5f602082019050620001b65f83018462000190565b92915050565b61199f80620001ca5f395ff3fe608060405234801561000f575f80fd5b50600436106100b2575f3560e01c80638da5cb5b1161006f5780638da5cb5b146101b0578063923727f9146101ce578063ad98b5e2146101ea578063b1ec8cfc14610206578063dabd05d314610236578063f2fde38b14610266576100b2565b80633d71a498146100b6578063453190a5146100e6578063637da6a314610116578063715018a6146101465780637b0c544314610150578063864dbe9f14610180575b5f80fd5b6100d060048036038101906100cb9190610d32565b610282565b6040516100dd9190610d9c565b60405180910390f35b61010060048036038101906100fb9190610ef1565b6102b2565b60405161010d9190610f47565b60405180910390f35b610130600480360381019061012b9190610fbd565b6102df565b60405161013d9190611094565b60405180910390f35b61014e6103a0565b005b61016a60048036038101906101659190610d32565b6103b3565b6040516101779190611094565b60405180910390f35b61019a600480360381019061019591906110b4565b61044e565b6040516101a79190611094565b60405180910390f35b6101b861050c565b6040516101c59190610d9c565b60405180910390f35b6101e860048036038101906101e39190611138565b610533565b005b61020460048036038101906101ff91906111a9565b61072b565b005b610220600480360381019061021b9190610d32565b6107b7565b60405161022d9190610d9c565b60405180910390f35b610250600480360381019061024b919061123a565b6107f0565b60405161025d9190610d9c565b60405180910390f35b610280600480360381019061027b9190611285565b61084f565b005b6003602052805f5260405f205f915054906101000a900473ffffffffffffffffffffffffffffffffffffffff1681565b6002818051602081018201805184825260208301602085012081835280955050505050505f915090505481565b606060045f8581526020019081526020015f2083836040516103029291906112de565b9081526020016040518091039020805461031b90611323565b80601f016020809104026020016040519081016040528092919081815260200182805461034790611323565b80156103925780601f1061036957610100808354040283529160200191610392565b820191905f5260205f20905b81548152906001019060200180831161037557829003601f168201915b505050505090509392505050565b6103a86108d3565b6103b15f61095a565b565b6001602052805f5260405f205f9150905080546103cf90611323565b80601f01602080910402602001604051908101604052809291908181526020018280546103fb90611323565b80156104465780601f1061041d57610100808354040283529160200191610446565b820191905f5260205f20905b81548152906001019060200180831161042957829003601f168201915b505050505081565b6004602052815f5260405f20818051602081018201805184825260208301602085012081835280955050505050505f9150915050805461048d90611323565b80601f01602080910402602001604051908101604052809291908181526020018280546104b990611323565b80156105045780601f106104db57610100808354040283529160200191610504565b820191905f5260205f20905b8154815290600101906020018083116104e757829003601f168201915b505050505081565b5f805f9054906101000a900473ffffffffffffffffffffffffffffffffffffffff16905090565b61053b6108d3565b5f60015f8681526020019081526020015f20805461055890611323565b90501461059a576040517f08c379a00000000000000000000000000000000000000000000000000000000081526004016105919061139d565b60405180910390fd5b5f801b600284846040516105af9291906112de565b908152602001604051809103902054146105fe576040517f08c379a00000000000000000000000000000000000000000000000000000000081526004016105f590611405565b60405180910390fd5b828260015f8781526020019081526020015f20918261061e9291906115d3565b5083600284846040516106329291906112de565b9081526020016040518091039020819055508060035f8681526020019081526020015f205f6101000a81548173ffffffffffffffffffffffffffffffffffffffff021916908373ffffffffffffffffffffffffffffffffffffffff16021790555061069c84610a1b565b60045f8681526020019081526020015f206040516106b9906116ea565b908152602001604051809103902090816106d391906116fe565b508073ffffffffffffffffffffffffffffffffffffffff16847fd9e1f120feea38a3054915f736eb106a4d8b82fe1a74907ee1125ffccb5c1f12858560405161071d9291906117f9565b60405180910390a350505050565b6107336108d3565b818160045f8881526020019081526020015f2086866040516107569291906112de565b908152602001604051809103902091826107719291906115d3565b50847f22f978b5290fd40ca92adcebde5af87ff35101272b68bf171682c1519b75ea27858585856040516107a8949392919061181b565b60405180910390a25050505050565b5f60035f8381526020019081526020015f205f9054906101000a900473ffffffffffffffffffffffffffffffffffffffff169050919050565b5f80600284846040516108049291906112de565b908152602001604051809103902054905060035f8281526020019081526020015f205f9054906101000a900473ffffffffffffffffffffffffffffffffffffffff1691505092915050565b6108576108d3565b5f73ffffffffffffffffffffffffffffffffffffffff168173ffffffffffffffffffffffffffffffffffffffff16036108c7575f6040517f1e4fbdf70000000000000000000000000000000000000000000000000000000081526004016108be9190610d9c565b60405180910390fd5b6108d08161095a565b50565b6108db610ce7565b73ffffffffffffffffffffffffffffffffffffffff166108f961050c565b73ffffffffffffffffffffffffffffffffffffffff16146109585761091c610ce7565b6040517f118cdaa700000000000000000000000000000000000000000000000000000000815260040161094f9190610d9c565b60405180910390fd5b565b5f805f9054906101000a900473ffffffffffffffffffffffffffffffffffffffff169050815f806101000a81548173ffffffffffffffffffffffffffffffffffffffff021916908373ffffffffffffffffffffffffffffffffffffffff1602179055508173ffffffffffffffffffffffffffffffffffffffff168173ffffffffffffffffffffffffffffffffffffffff167f8be0079c531659141344cd1fd0a4f28419497f9722a3daafe3b4186f6b6457e060405160405180910390a35050565b60605f6040518060400160405280601081526020017f303132333435363738396162636465660000000000000000000000000000000081525090505f604267ffffffffffffffff811115610a7257610a71610dcd565b5b6040519080825280601f01601f191660200182016040528015610aa45781602001600182028036833780820191505090505b5090507f3000000000000000000000000000000000000000000000000000000000000000815f81518110610adb57610ada611854565b5b60200101907effffffffffffffffffffffffffffffffffffffffffffffffffffffffffffff191690815f1a9053507f780000000000000000000000000000000000000000000000000000000000000081600181518110610b3e57610b3d611854565b5b60200101907effffffffffffffffffffffffffffffffffffffffffffffffffffffffffffff191690815f1a9053505f5b6020811015610cdc57826004868360208110610b8d57610b8c611854565b5b1a60f81b7effffffffffffffffffffffffffffffffffffffffffffffffffffffffffffff1916901c60f81c60ff1681518110610bcc57610bcb611854565b5b602001015160f81c60f81b82600283610be591906118ae565b6002610bf191906118ef565b81518110610c0257610c01611854565b5b60200101907effffffffffffffffffffffffffffffffffffffffffffffffffffffffffffff191690815f1a90535082600f60f81b868360208110610c4957610c48611854565b5b1a60f81b1660f81c60ff1681518110610c6557610c64611854565b5b602001015160f81c60f81b82600283610c7e91906118ae565b6003610c8a91906118ef565b81518110610c9b57610c9a611854565b5b60200101907effffffffffffffffffffffffffffffffffffffffffffffffffffffffffffff191690815f1a9053508080610cd490611922565b915050610b6e565b508092505050919050565b5f33905090565b5f604051905090565b5f80fd5b5f80fd5b5f819050919050565b610d1181610cff565b8114610d1b575f80fd5b50565b5f81359050610d2c81610d08565b92915050565b5f60208284031215610d4757610d46610cf7565b5b5f610d5484828501610d1e565b91505092915050565b5f73ffffffffffffffffffffffffffffffffffffffff82169050919050565b5f610d8682610d5d565b9050919050565b610d9681610d7c565b82525050565b5f602082019050610daf5f830184610d8d565b92915050565b5f80fd5b5f80fd5b5f601f19601f8301169050919050565b7f4e487b71000000000000000000000000000000000000000000000000000000005f52604160045260245ffd5b610e0382610dbd565b810181811067ffffffffffffffff82111715610e2257610e21610dcd565b5b80604052505050565b5f610e34610cee565b9050610e408282610dfa565b919050565b5f67ffffffffffffffff821115610e5f57610e5e610dcd565b5b610e6882610dbd565b9050602081019050919050565b828183375f83830152505050565b5f610e95610e9084610e45565b610e2b565b905082815260208101848484011115610eb157610eb0610db9565b5b610ebc848285610e75565b509392505050565b5f82601f830112610ed857610ed7610db5565b5b8135610ee8848260208601610e83565b91505092915050565b5f60208284031215610f0657610f05610cf7565b5b5f82013567ffffffffffffffff811115610f2357610f22610cfb565b5b610f2f84828501610ec4565b91505092915050565b610f4181610cff565b82525050565b5f602082019050610f5a5f830184610f38565b92915050565b5f80fd5b5f80fd5b5f8083601f840112610f7d57610f7c610db5565b5b8235905067ffffffffffffffff811115610f9a57610f99610f60565b5b602083019150836001820283011115610fb657610fb5610f64565b5b9250929050565b5f805f60408486031215610fd457610fd3610cf7565b5b5f610fe186828701610d1e565b935050602084013567ffffffffffffffff81111561100257611001610cfb565b5b61100e86828701610f68565b92509250509250925092565b5f81519050919050565b5f82825260208201905092915050565b5f5b83811015611051578082015181840152602081019050611036565b5f8484015250505050565b5f6110668261101a565b6110708185611024565b9350611080818560208601611034565b61108981610dbd565b840191505092915050565b5f6020820190508181035f8301526110ac818461105c565b905092915050565b5f80604083850312156110ca576110c9610cf7565b5b5f6110d785828601610d1e565b925050602083013567ffffffffffffffff8111156110f8576110f7610cfb565b5b61110485828601610ec4565b9150509250929050565b61111781610d7c565b8114611121575f80fd5b50565b5f813590506111328161110e565b92915050565b5f805f80606085870312156111505761114f610cf7565b5b5f61115d87828801610d1e565b945050602085013567ffffffffffffffff81111561117e5761117d610cfb565b5b61118a87828801610f68565b9350935050604061119d87828801611124565b91505092959194509250565b5f805f805f606086880312156111c2576111c1610cf7565b5b5f6111cf88828901610d1e565b955050602086013567ffffffffffffffff8111156111f0576111ef610cfb565b5b6111fc88828901610f68565b9450945050604086013567ffffffffffffffff81111561121f5761121e610cfb565b5b61122b88828901610f68565b92509250509295509295909350565b5f80602083850312156112505761124f610cf7565b5b5f83013567ffffffffffffffff81111561126d5761126c610cfb565b5b61127985828601610f68565b92509250509250929050565b5f6020828403121561129a57611299610cf7565b5b5f6112a784828501611124565b91505092915050565b5f81905092915050565b5f6112c583856112b0565b93506112d2838584610e75565b82840190509392505050565b5f6112ea8284866112ba565b91508190509392505050565b7f4e487b71000000000000000000000000000000000000000000000000000000005f52602260045260245ffd5b5f600282049050600182168061133a57607f821691505b60208210810361134d5761134c6112f6565b5b50919050565b7f416c7265616479207265676973746572656400000000000000000000000000005f82015250565b5f611387601283611024565b915061139282611353565b602082019050919050565b5f6020820190508181035f8301526113b48161137b565b9050919050565b7f5375626e616d652074616b656e000000000000000000000000000000000000005f82015250565b5f6113ef600d83611024565b91506113fa826113bb565b602082019050919050565b5f6020820190508181035f83015261141c816113e3565b9050919050565b5f82905092915050565b5f819050815f5260205f209050919050565b5f6020601f8301049050919050565b5f82821b905092915050565b5f600883026114897fffffffffffffffffffffffffffffffffffffffffffffffffffffffffffffffff8261144e565b611493868361144e565b95508019841693508086168417925050509392505050565b5f819050919050565b5f819050919050565b5f6114d76114d26114cd846114ab565b6114b4565b6114ab565b9050919050565b5f819050919050565b6114f0836114bd565b6115046114fc826114de565b84845461145a565b825550505050565b5f90565b61151861150c565b6115238184846114e7565b505050565b5b818110156115465761153b5f82611510565b600181019050611529565b5050565b601f82111561158b5761155c8161142d565b6115658461143f565b81016020851015611574578190505b6115886115808561143f565b830182611528565b50505b505050565b5f82821c905092915050565b5f6115ab5f1984600802611590565b1980831691505092915050565b5f6115c3838361159c565b9150826002028217905092915050565b6115dd8383611423565b67ffffffffffffffff8111156115f6576115f5610dcd565b5b6116008254611323565b61160b82828561154a565b5f601f831160018114611638575f8415611626578287013590505b61163085826115b8565b865550611697565b601f1984166116468661142d565b5f5b8281101561166d57848901358255600182019150602085019450602081019050611648565b8683101561168a5784890135611686601f89168261159c565b8355505b6001600288020188555050505b50505050505050565b7f636f6d2e6d75736963627261696e7a2e6d6269640000000000000000000000005f82015250565b5f6116d46014836112b0565b91506116df826116a0565b601482019050919050565b5f6116f4826116c8565b9150819050919050565b6117078261101a565b67ffffffffffffffff8111156117205761171f610dcd565b5b61172a8254611323565b61173582828561154a565b5f60209050601f831160018114611766575f8415611754578287015190505b61175e85826115b8565b8655506117c5565b601f1984166117748661142d565b5f5b8281101561179b57848901518255600182019150602085019450602081019050611776565b868310156117b857848901516117b4601f89168261159c565b8355505b6001600288020188555050505b505050505050565b5f6117d88385611024565b93506117e5838584610e75565b6117ee83610dbd565b840190509392505050565b5f6020820190508181035f8301526118128184866117cd565b90509392505050565b5f6040820190508181035f8301526118348186886117cd565b905081810360208301526118498184866117cd565b905095945050505050565b7f4e487b71000000000000000000000000000000000000000000000000000000005f52603260045260245ffd5b7f4e487b71000000000000000000000000000000000000000000000000000000005f52601160045260245ffd5b5f6118b8826114ab565b91506118c3836114ab565b92508282026118d1816114ab565b915082820484148315176118e8576118e7611881565b5b5092915050565b5f6118f9826114ab565b9150611904836114ab565b925082820190508082111561191c5761191b611881565b5b92915050565b5f61192c826114ab565b91507fffffffffffffffffffffffffffffffffffffffffffffffffffffffffffffffff820361195e5761195d611881565b5b60018201905091905056fea26469706673582212209806a682b4d9f013ea09b4a3346e96617d00f163992488e2fd657c41c87adfd464736f6c63430008140033","linkReferences":{}},"methodIdentifiers":{"artistAddress(bytes32)":"3d71a498","artistSubname(bytes32)":"7b0c5443","getTextRecord(bytes32,string)":"637da6a3","owner()":"8da5cb5b","registerArtist(bytes32,string,address)":"923727f9","renounceOwnership()":"715018a6","resolveArtist(bytes32)":"b1ec8cfc","resolveSubname(string)":"dabd05d3","setTextRecord(bytes32,string,string)":"ad98b5e2","subnameMbid(string)":"453190a5","textRecords(bytes32,string)":"864dbe9f","transferOwnership(address)":"f2fde38b"},"id":27}